{
  "_format": "hh-sol-artifact-1",
  "contractName": "WavePortal",
  "sourceName": "contracts/WavePortal.sol",
  "abi": [
    {
      "inputs": [],
      "stateMutability": "nonpayable",
      "type": "constructor"
    },
    {
      "inputs": [],
      "name": "getTotalWaves",
      "outputs": [
        {
          "internalType": "uint256",
          "name": "",
          "type": "uint256"
        }
      ],
      "stateMutability": "view",
      "type": "function"
    },
    {
      "inputs": [
        {
          "internalType": "address",
          "name": "sender",
          "type": "address"
        }
      ],
      "name": "getTotalWavesBySender",
      "outputs": [
        {
          "internalType": "uint256",
          "name": "",
          "type": "uint256"
        }
      ],
      "stateMutability": "view",
      "type": "function"
    },
    {
      "inputs": [],
      "name": "wave",
      "outputs": [],
      "stateMutability": "nonpayable",
      "type": "function"
    }
  ],
  "bytecode": "0x608060405234801561001057600080fd5b5061071d806100206000396000f3fe608060405234801561001057600080fd5b50600436106100415760003560e01c80636fe15b44146100465780639a2cdc0814610050578063d36b41091461006e575b600080fd5b61004e61009e565b005b61005861014e565b6040516100659190610594565b60405180910390f35b61008860048036038101906100839190610476565b610199565b6040516100959190610594565b60405180910390f35b60018060003373ffffffffffffffffffffffffffffffffffffffff1673ffffffffffffffffffffffffffffffffffffffff16815260200190815260200160002060008282546100ed91906105cb565b92505081905550600160008082825461010691906105cb565b9250508190555061014c6040518060400160405280600d81526020017f257320686173207761766564210000000000000000000000000000000000000081525033610261565b565b60006101916040518060400160405280601781526020017f5765206861766520256420746f74616c207761766573210000000000000000008152506000546102fd565b600054905090565b600061021a6040518060400160405280601181526020017f25732073656e742025642077617665732100000000000000000000000000000081525083600160008673ffffffffffffffffffffffffffffffffffffffff1673ffffffffffffffffffffffffffffffffffffffff16815260200190815260200160002054610399565b600160008373ffffffffffffffffffffffffffffffffffffffff1673ffffffffffffffffffffffffffffffffffffffff168152602001908152602001600020549050919050565b6102f982826040516024016102779291906104f6565b6040516020818303038152906040527f319af333000000000000000000000000000000000000000000000000000000007bffffffffffffffffffffffffffffffffffffffffffffffffffffffff19166020820180517bffffffffffffffffffffffffffffffffffffffffffffffffffffffff8381831617835250505050610438565b5050565b6103958282604051602401610313929190610564565b6040516020818303038152906040527f9710a9d0000000000000000000000000000000000000000000000000000000007bffffffffffffffffffffffffffffffffffffffffffffffffffffffff19166020820180517bffffffffffffffffffffffffffffffffffffffffffffffffffffffff8381831617835250505050610438565b5050565b6104338383836040516024016103b193929190610526565b6040516020818303038152906040527f07c81217000000000000000000000000000000000000000000000000000000007bffffffffffffffffffffffffffffffffffffffffffffffffffffffff19166020820180517bffffffffffffffffffffffffffffffffffffffffffffffffffffffff8381831617835250505050610438565b505050565b60008151905060006a636f6e736f6c652e6c6f679050602083016000808483855afa5050505050565b600081359050610470816106d0565b92915050565b60006020828403121561048857600080fd5b600061049684828501610461565b91505092915050565b6104a881610621565b82525050565b60006104b9826105af565b6104c381856105ba565b93506104d381856020860161065d565b6104dc816106bf565b840191505092915050565b6104f081610653565b82525050565b6000604082019050818103600083015261051081856104ae565b905061051f602083018461049f565b9392505050565b6000606082019050818103600083015261054081866104ae565b905061054f602083018561049f565b61055c60408301846104e7565b949350505050565b6000604082019050818103600083015261057e81856104ae565b905061058d60208301846104e7565b9392505050565b60006020820190506105a960008301846104e7565b92915050565b600081519050919050565b600082825260208201905092915050565b60006105d682610653565b91506105e183610653565b9250827fffffffffffffffffffffffffffffffffffffffffffffffffffffffffffffffff0382111561061657610615610690565b5b828201905092915050565b600061062c82610633565b9050919050565b600073ffffffffffffffffffffffffffffffffffffffff82169050919050565b6000819050919050565b60005b8381101561067b578082015181840152602081019050610660565b8381111561068a576000848401525b50505050565b7f4e487b7100000000000000000000000000000000000000000000000000000000600052601160045260246000fd5b6000601f19601f8301169050919050565b6106d981610621565b81146106e457600080fd5b5056fea264697066735822122021a2b13e5638e1fbe5257e4b36feaaab87ad506d68aff9f500f924427ece93ea64736f6c63430008000033",
  "linkReferences": {},
  "deployedLinkReferences": {}
}